:100000000C94FC000C9419010C9419010C94190126
:100010000C9419010C9419010C9419010C941901F8
:100020000C9419010C9419010C9419010C941901E8
:100030000C9419010C9419010C9419010C941901D8
:100040000C9419010C9419010C941B0C0C94490C80
:100050000C9419010C9419010C9419010C941901B8
:100060000C9419010C9419014E414E494E495459B2
:10007000494E46CDCCCC3D0AD7233C17B7D1387773
:10008000CC2B329595E6241FB14F0A000020410089
:1000900000C84200401C4620BCBE4CCA1B0E5AAED3
:1000A000C59D7400407A10F35A00A0724E180900E2
:1000B00010A5D4E80000E87648170000E40B5402CD
:1000C0000000CA9A3B000000E1F505000080969808
:1000D00000000040420F000000A086010000001058
:1000E0002700000000E8030000000064000000009A
:1000F000000A00000000000100000000002C76D87B
:1001000088DC674F0823DFC1DFAE59E1B1B796E560
:10011000E3E453C63AE651997696E8E6C28426EBC4
:10012000898C9B62ED407C6FFCEFBC9C9F40F2BAD7
:10013000A56FA5F490055A2AF75C936B6CF9676D6F
:10014000C11BFCE0E40D47FEF520E6B500D0ED90C4
:100150002E0300943577050080841E080000204E91
:100160000A000000C80C333333330F986E1283112A
:1001700041EF8D2114893BE65516CFFEE6DB18D101
:10018000844B381BF77C1D901DA4BBE424203284D3
:10019000725E228100C9F124ECA1E53D2700000038
:1001A0000800020100000304070000000000000036
:1001B0000001020408102040800102040810200100
:1001C00002040810200404040404040404020202CB
:1001D00002020203030303030300000000230026BE
:1001E00000290000000000250028002B000000006E
:1001F00000240027002A000011241FBECFEFD8E002
:10020000DEBFCDBF11E0A0E0B1E0E6EEFBE202C050
:1002100005900D92AC30B107D9F721E0ACE0B1E028
:1002200001C01D92AE35B207E1F70E94E30C0C94B9
:10023000F1150C940000CF93DF9388E00E944D02EB
:10024000892BD9F3D0E0C0E088E00E944D020197ED
:1002500041F421968FE19EE40197F1F700C0000080
:10026000F3CF80E326970CF081E3DF91CF910895DF
:10027000833081F028F4813099F08230A1F0089524
:100280008730A9F08830B9F08430D1F480918000B3
:100290008F7D03C0809180008F77809380000895C8
:1002A00084B58F7702C084B58F7D84BD0895809119
:1002B000B0008F7703C08091B0008F7D8093B00035
:1002C00008959FB7F89480911001882319F0815008
:1002D0008093100180911001811105C08CB58F7B36
:1002E0008CBD10920F019FBF08959FB7F89488238B
:1002F00049F0813011F482E006C082E080930F0162
:1003000080E001C081E020910E01822B80930E01DC
:1003100080910F01811103C081E080930F019FBF85
:10032000089590910F019230B1F02FB7F89488237F
:1003300021F0813021F482E003C081E001C080E03F
:10034000809590910E01892380930E01811102C046
:1003500010920F012FBF0895CF93DF9390E0FC011F
:10036000EF54FE4F2491FC01EB53FE4F8491882300
:1003700061F190E0880F991FFC01E351FE4FC59198
:10038000D491FC01ED51FE4FA591B491611109C0CA
:100390009FB7F8948881209582238883EC912E233F
:1003A0000BC0623061F49FB7F8948881322F30958A
:1003B00083238883EC912E2B2C939FBF06C08FB78D
:1003C000F894E8812E2B28838FBFDF91CF91089579
:1003D0001F93CF93DF93282F30E0F901E356FE4FB0
:1003E0008491F901EF54FE4FD491F901EB53FE4F84
:1003F000C491CC23C1F0162F81110E943801EC2F3B
:10040000F0E0EE0FFF1FED51FE4FA591B4919FB7A5
:10041000F894111104C08C91D095D82302C0EC91AE
:10042000DE2BDC939FBFDF91CF911F910895CF9377
:10043000CFB7F89480911001811127C0EFECF1E063
:100440008491EBEBF1E09491E82FF0E0EE0FFF1FC9
:10045000E351FE4FA591B491EC91E92321F461E0C1
:100460008AE00E94E80161E08AE00E94AC018CB55C
:1004700080618CBD8CB580648CBD61E08DE00E9494
:10048000AC0161E08BE00E94AC01809110018F5FB4
:1004900080931001CFBFCF910895CF93DF93282F82
:1004A00030E0F901E356FE4F8491F901EF54FE4F1D
:1004B000D491F901EB53FE4FC491CC2391F08111FB
:1004C0000E943801EC2FF0E0EE0FFF1FE752FE4FC5
:1004D000A591B491EC91ED2381E090E021F480E0CE
:1004E00002C080E090E0DF91CF910895FC0180810F
:1004F00091810C94140ECF93DF93EC018881998144
:10050000009711F00E94140E198218821D821C821D
:100510001B821A82DF91CF9108950F931F93CF937F
:10052000DF93EC018B016F5F7F4F888199810E947F
:10053000A50E009731F0998388831B830A8381E09D
:1005400001C080E0DF91CF911F910F910895CF936B
:10055000DF93EC0188819981892B29F08A819B8125
:100560008617970760F4CE010E948D02882341F020
:100570008C819D81892B19F4E881F981108281E0B9
:10058000DF91CF910895EF92FF920F931F93CF9336
:10059000DF93EC017B018A01BA010E94A70281115D
:1005A00004C0CE010E947B0207C01D830C83B701EB
:1005B000888199810E94F90FCE01DF91CF911F911F
:1005C0000F91FF90EF900895FC0111821082138229
:1005D0001282158214826115710551F0FB010190A0
:1005E0000020E9F73197AF01461B570B0C94C3026B
:1005F0000895EF92FF920F931F93CF93DF93EC0137
:100600007B018A01BA010E94A702811104C0CE01B8
:100610000E947B0207C01D830C83B70188819981EA
:100620000E94AF0FCE01DF91CF911F910F91FF90EC
:10063000EF9008950F931F93CF93DF938C01EB01FD
:10064000FC01808191810097D1F0688179816115E9
:10065000710599F02CE53DE0232B79F0428153811F
:100660002C813D814217530740F00E94F90F8C8185
:100670009D81F8019583848313C00E94140E8881A4
:100680009981F801918380838A819B8193838283FE
:100690008C819D8195838483198218821B821A82A2
:1006A0001D821C82DF91CF911F910F910895FC0153
:1006B0001182108213821282158214820C941A0302
:1006C000FC011182108213821282158214820C9412
:1006D0001A03CF93DF93EC01FB018617970761F0B4
:1006E000608171816115710529F0448155810E94F5
:1006F000C30202C00E947B02CE01DF91CF91089518
:10070000FC011182108213821282158214820C94D1
:100710006903CF93DF93EC018617970711F00E94CE
:100720001A03CE01DF91CF910895CF93DF93EC01AF
:100730006817790711F00E941A03CE01DF91CF915B
:100740000895CF93DF93EC016115710559F0FB011A
:1007500001900020E9F73197AF01461B570B0E942B
:10076000C30202C00E947B02CE01DF91CF910895A7
:10077000CF93DF9300D0CDB7DEB7FC01118210829A
:10078000138212821582148269831A82BE016F5FFE
:100790007F4F0E94A1030F900F90DF91CF9108959A
:1007A0000F931F93CF93DF93CDB7DEB729970FB683
:1007B000F894DEBF0FBECDBF8C01862FF8011182E9
:1007C0001082138212821582148250E0BE016F5F84
:1007D0007F4F90E00E94B410BE016F5F7F4FC80151
:1007E0000E94A10329960FB6F894DEBF0FBECDBFBD
:1007F000DF91CF911F910F9108950F931F93CF9386
:10080000DF93CDB7DEB762970FB6F894DEBF0FBEA9
:10081000CDBF8C01CB01F8011182108213821282AC
:100820001582148250E0BE016F5F7F4F0E9442101C
:10083000BE016F5F7F4FC8010E94A10362960FB691
:10084000F894DEBF0FBECDBFDF91CF911F910F9106
:1008500008950F931F93CF93DF93CDB7DEB76197C2
:100860000FB6F894DEBF0FBECDBF8C01CB01F801EF
:1008700011821082138212821582148250E0BE010E
:100880006F5F7F4F0E94B410BE016F5F7F4FC80142
:100890000E94A10361960FB6F894DEBF0FBECDBFD4
:1008A000DF91CF911F910F9108950F931F93CF93D5
:1008B000DF93CDB7DEB7A2970FB6F894DEBF0FBEB9
:1008C000CDBF8C01CB01BA01F801118210821382D5
:1008D00012821582148230E0AE014F5F5F4F0E949A
:1008E0005810BE016F5F7F4FC8010E94A103A296FE
:1008F0000FB6F894DEBF0FBECDBFDF91CF911F9131
:100900000F9108950F931F93CF93DF93CDB7DEB769
:10091000A1970FB6F894DEBF0FBECDBF8C01CB01FF
:10092000BA01F80111821082138212821582148298
:1009300030E0AE014F5F5F4F0E948710BE016F5FD6
:100940007F4FC8010E94A103A1960FB6F894DEBFA5
:100950000FBECDBFDF91CF911F910F910895EF9200
:10096000FF920F931F93CF93DF93CDB7DEB7A1977D
:100970000FB6F894DEBF0FBECDBF7C01CB01BA012C
:10098000F70111821082138212821582148242E0D2
:10099000420F8E010F5F1F4F0E945D0DBC01C7010A
:1009A0000E94A103A1960FB6F894DEBF0FBECDBF83
:1009B000DF91CF911F910F91FF90EF900895EF92EB
:1009C000FF920F931F93CF93DF93CDB7DEB7A1971D
:1009D0000FB6F894DEBF0FBECDBF7C01CB01BA01CC
:1009E000F70111821082138212821582148242E072
:1009F000420F8E010F5F1F4F0E945D0DBC01C701AA
:100A00000E94A103A1960FB6F894DEBF0FBECDBF22
:100A1000DF91CF911F910F91FF90EF9008950F9369
:100A20001F93CF93DF93EC018B016115710549F0A2
:100A3000CB010E94B60FAC01B801CE010E94F902B1
:100A400002C00E947B02CE01DF91CF911F910F91D6
:100A50000895FC0111821082138212821582148281
:100A60000C940F05EF92FF920F931F93CF93DF9398
:100A70006115710511F480E01CC041155105C1F0EC
:100A80007B01EC018C819D818A01080F191FB8013F
:100A9000CE010E94A702882371F3288139818C81BD
:100AA0009D81B701820F931F0E94F90F1D830C8354
:100AB00081E0DF91CF911F910F91FF90EF9008950A
:100AC000FB0144815581608171810C94320561156F
:100AD000710551F0FB0101900020E9F73197AF015A
:100AE000461B570B0C94320580E00895CF93DF939B
:100AF00000D0CDB7DEB769831A8241E050E0BE0175
:100B00006F5F7F4F0E9432050F900F90DF91CF9162
:100B10000895EF92FF920F931F93CF93DF9300D02E
:100B200000D0CDB7DEB77C01862F4AE08E010F5F83
:100B30001F4FB80190E00E944D10F8010190002075
:100B4000E9F73197AF01401B510BB801C7010E9473
:100B500032050F900F900F900F90DF91CF911F9162
:100B60000F91FF90EF900895EF92FF920F931F93D4
:100B7000CF93DF93CDB7DEB728970FB6F894DEBFDB
:100B80000FBECDBF7C01CB014AE08E010F5F1F4F2E
:100B9000B8010E944D10F80101900020E9F731974B
:100BA000AF01401B510BB801C7010E9432052896C6
:100BB0000FB6F894DEBF0FBECDBFDF91CF911F916E
:100BC0000F91FF90EF900895EF92FF920F931F9374
:100BD000CF93DF93CDB7DEB727970FB6F894DEBF7C
:100BE0000FBECDBF7C01CB014AE08E010F5F1F4FCE
:100BF000B8010E94BF10F80101900020E9F7319779
:100C0000AF01401B510BB801C7010E943205279666
:100C10000FB6F894DEBF0FBECDBFDF91CF911F910D
:100C20000F91FF90EF900895EF92FF920F931F9313
:100C3000CF93DF93CDB7DEB72E970FB6F894DEBF14
:100C40000FBECDBF7C01CB01BA012AE08E010F5F40
:100C50001F4FA8010E946310F80101900020E9F7DE
:100C60003197AF01401B510BB801C7010E943205FB
:100C70002E960FB6F894DEBF0FBECDBFDF91CF9199
:100C80001F910F91FF90EF900895EF92FF920F93B5
:100C90001F93CF93DF93CDB7DEB72D970FB6F894A0
:100CA000DEBF0FBECDBF7C01CB01BA012AE08E01B1
:100CB0000F5F1F4FA8010E949210F80101900020C1
:100CC000E9F73197AF01401B510BB801C7010E94F2
:100CD00032052D960FB6F894DEBF0FBECDBFDF9163
:100CE000CF911F910F91FF90EF900895EF92FF9297
:100CF0000F931F93CF93DF93CDB7DEB764970FB6F3
:100D0000F894DEBF0FBECDBF7C01CB01BA018E01CE
:100D10000F5F1F4F22E044E00E945D0DFC01019037
:100D20000020E9F73197AF01481B590BBC01C701FF
:100D30000E94320564960FB6F894DEBF0FBECDBF99
:100D4000DF91CF911F910F91FF90EF900895EF9257
:100D5000FF920F931F93CF93DF93CDB7DEB76497C6
:100D60000FB6F894DEBF0FBECDBF7C01CB01BA0138
:100D70008E010F5F1F4F22E044E00E945D0DFC01D9
:100D800001900020E9F73197AF01481B590BBC01D6
:100D9000C7010E94320564960FB6F894DEBF0FBEFD
:100DA000CDBFDF91CF911F910F91FF90EF900895EC
:100DB000EF92FF920F931F93CF93DF93611571050D
:100DC00011F480E01EC08B01EC01CB010E94B60F34
:100DD0000097B1F02C813D817C01E20EF31EB7013A
:100DE000CE010E94A702882361F3288139818C817A
:100DF0009D81B801820F931F0E94AF0FFD82EC828C
:100E000081E0DF91CF911F910F91FF90EF900895B6
:100E1000CF93DF93EC01FB014481558160817181A7
:100E20000E943205811103C0CE010E947B02CE01D7
:100E3000DF91CF910895CF93DF93EC016115710598
:100E400061F0FB0101900020E9F73197AF01461BEB
:100E5000570B0E943205811103C0CE010E947B0214
:100E6000CE01DF91CF910895CF93DF93EC010E94E3
:100E70007605811103C0CE010E947B02CE01DF9175
:100E8000CF910895CF93DF93EC010E9489058111E2
:100E900003C0CE010E947B02CE01DF91CF91089565
:100EA000CF93DF93EC010E94B405811103C0CE0102
:100EB0000E947B02CE01DF91CF910895CF93DF9303
:100EC000EC010E94E405811103C0CE010E947B0267
:100ED000CE01DF91CF910895CF93DF93EC010E9473
:100EE0001406811103C0CE010E947B02CE01DF9166
:100EF000CF910895CF93DF93EC010E9445068111B5
:100F000003C0CE010E947B02CE01DF91CF910895F4
:100F1000CF93DF93EC010E947606811103C0CE01CE
:100F20000E947B02CE01DF91CF910895CF93DF9392
:100F3000EC010E94A706811103C0CE010E947B0232
:100F4000CE01DF91CF910895CF93DF93EC010E9402
:100F5000D806811103C0CE010E947B02CE01DF9131
:100F6000CF910895CF93DF93DC01ED91FC91EB01DC
:100F7000A881B981309711F01097C9F4109759F0F2
:100F8000EB012C813D81232B31F08C9190E09195E8
:100F90008195910914C0309781F0DC0114968D91F0
:100FA0009C911597892B49F0808190E008C0BD0184
:100FB000CF01DF91CF910C94F00F80E090E0DF91B2
:100FC000CF910895FC0144815581FB012481358135
:100FD0004217530729F40E94B20721E0892B09F038
:100FE00020E0822F0895FC0124813581232B31F4E8
:100FF00021E061157105A1F0FB0108C0FC018081B1
:1010000091816115710531F421E0FC018081882313
:1010100039F005C00E94F00F21E0892B09F020E093
:10102000822F08950E94B207892F881F8827881F62
:1010300008950E94B20721E0181619060CF020E06E
:10104000822F08950E94B20721E0181619060CF4A9
:1010500020E0822F08950E94B207892F8095881F73
:101060008827881F0895EF92FF920F931F93CF93C5
:10107000DF938617970731F1FC0124813581FB014D
:101080004481558124173507D9F4232BD9F0DC018D
:101090000D911C91C081D181F80181918F0188232C
:1010A00089F0082E000C990B0E949F0F7C018991FA
:1010B000082E000C990B0E949F0FE816F90661F3A9
:1010C00080E001C081E0DF91CF911F910F91FF90EF
:1010D000EF900895DB011496ED91FC911597DC01DA
:1010E00014962D913C9115972E1B3F0B2417350715
:1010F000A0F02D913C912115310579F0DB016D9126
:101100007C916115710549F0CA01AF01820F931FEF
:101110000E94001021E0892B09F020E0822F089521
:10112000FC0144815581FB0124813581421753071D
:1011300020F040E050E00C946A0880E00895FC0143
:1011400024813581FB014481558124173507A0F0A6
:10115000FC0180819181009779F0FB0160817181B0
:101160006115710549F0241B350B820F931F0E94F6
:10117000F00F21E0892B09F020E0822F0895FC0177
:10118000248135816217730730F480819181FC01DD
:10119000E60FF71F40830895FC0124813581621713
:1011A000730720F480819181009729F41092120135
:1011B00082E191E00895860F971F0895FC01248134
:1011C00035816217730748F480819181009729F077
:1011D000FC01E60FF71F8081089580E008950C94CC
:1011E000DE080F931F93CF93DF934115510519F13B
:1011F0006115710501F1DC011496ED91FC911597D3
:101200002E173F0718F0FB01108215C0E21BF30BED
:10121000EA012197EC17FD0708F4EF018B01FC01AF
:1012200060817181620F731FAE01C8010E940E10B0
:10123000C00FD11F1882DF91CF911F910F91089598
:10124000CF93DF93FC01248135814217530778F453
:10125000C081D181062E000C770BCE01840F951F23
:101260000E94E50F009719F08C1B9D0B02C08FEFB9
:101270009FEFDF91CF91089540E050E00C9420095A
:10128000CF93DF93FC01248135814217530780F40B
:10129000FB01DC01CD91DC9160817181CE01840F75
:1012A000951F0E942810009719F08C1B9D0B02C0FF
:1012B0008FEF9FEFDF91CF91089540E050E00C94C5
:1012C0004009DF92EF92FF920F931F93CF93DF932A
:1012D000DC0114962D913C9115974217530718F095
:1012E0008FEF9FEF1DC08C01EA012196DC01ED918B
:1012F000FC911197EC0FFD1FD0801082ED90FC90B7
:10130000062E000C770BC7010E941D10CE0DDF1DAD
:10131000D882009729F3F80120813181821B930B39
:10132000DF91CF911F910F91FF90EF90DF90089583
:10133000FC0144815581415051090C946109AF92DF
:10134000BF92CF92DF92EF92FF920F931F93CF93B2
:10135000DF937B018A01FB014481558141155105D1
:1013600061F1FC01248135812115310531F124170A
:10137000350718F10217130718F0890101501109F8
:10138000FC01A080B180C501DFEFCFEF6501C00E89
:10139000D11EC816D906A0F0F701608171810E94A4
:1013A0002810009769F09C012A193B0902171307BE
:1013B00010F0D22FC32F0196ECCF8FEF9FEF02C01A
:1013C0008D2F9C2FDF91CF911F910F91FF90EF9068
:1013D000DF90CF90BF90AF900895FC01448155817C
:1013E000FB0124813581421B530B0C949F09BF9252
:1013F000CF92DF92EF92FF920F931F93CF93DF93E1
:101400007C016B018A01E9012417350720F4812F43
:101410008901C42FD82F6BE071E0C7010E94E4025C
:10142000D60114968D919C91159708171907C8F449
:101430008C179D0708F4EC01D601ED91FC911197F2
:10144000EC0FFD1FB08010826D917C91600F711FB9
:10145000C7010E94A103D601ED91FC91EC0FFD1F85
:10146000B082C701DF91CF911F910F91FF90EF9054
:10147000DF90CF90BF900895DC01ED91FC91309703
:1014800041F08081882329F0861301C04083319682
:10149000F8CF08952F923F924F925F926F927F9272
:1014A0008F929F92AF92BF92CF92DF92EF92FF9274
:1014B0000F931F93CF93DF93FC0144805580411419
:1014C000510409F4CEC0FB018480958081149104FD
:1014D00009F4C7C07A016B018C01FA016480758040
:1014E00068187908FC01C081D18161147104B9F4D4
:1014F000F60160817181CE010E942810EC010097F5
:1015000009F4AFC0F70160817181448155810E9467
:10151000BF0FF70184819581C80FD91FE9CF77FEEE
:1015200044C05E01F60160817181C5010E942810EE
:101530002C01009721F14C018A189B08A401B501E8
:10154000CE010E94BF0FC80DD91DF70160817181C6
:1015500044815581CE010E94BF0FF701848195819E
:10156000C80FD91FF601A480B580A40CB51CF801E2
:1015700084819581860D971D95838483D3CFB50192
:10158000CE01DF91CF911F910F91FF90EF90DF90EF
:10159000CF90BF90AF909F908F907F906F905F9013
:1015A0004F903F902F900C94F90FFB0120803180D9
:1015B0005201B101CE010E942810009731F0EC01D8
:1015C000C80DD91DA60CB71CF4CFA414B50409F49A
:1015D00048C0F801828193818A159B0530F4B501DA
:1015E000C8010E948D028823E1F1F80144815581F0
:1015F0004150510957FD35C0B601C8010E949F09ED
:10160000EC0197FD2EC0F60124813581280F391F8A
:10161000F80180819181820F931F44815581421B83
:10162000530BBC01860D971D0E94C80FF8018481E1
:101630009581860D971D9583848320813181F901E1
:10164000E80FF91F1082F80180819181F701608114
:101650007181448155818C0F9D1F0E94BF0FAE0187
:10166000C7CFDF91CF911F910F91FF90EF90DF9047
:10167000CF90BF90AF909F908F907F906F905F9032
:101680004F903F902F900895CF93DF93DC011496F5
:10169000ED91FC9115976E177F0730F541155105B7
:1016A00019F1DF01A61BB70B9A01A417B50708F4BF
:1016B0009D01DB01EC0188819981E21BF30BFD8325
:1016C000EC83AF01461B570B260F371FBC01620F7F
:1016D000731F8A0F9B1F0E940E10E881F9818C8175
:1016E0009D81E80FF91F1082DF91CF9108954FEF90
:1016F0005FEF0C94440BCF93DF93FC01C081D18149
:10170000209751F08881882339F0082E000C990B1E
:101710000E949F0F8993F6CFDF91CF910895CF93C9
:10172000DF93FC01C081D181209751F0888188230B
:1017300039F0082E000C990B0E94A70F8993F6CF61
:10174000DF91CF910895AF92BF92CF92DF92EF9247
:10175000FF920F931F93CF93DF93DC01CD90DC902A
:101760001197C114D10409F443C01496CD91DC91B2
:1017700015972097E9F18C0176015701BFEFAB1A5D
:10178000BB0AF7018081082E000C990B0E94960F6E
:10179000892B11F07501F1CF2197CC0DDD1D8881CA
:1017A000082E000C990B0E94960F892B29F0CE155C
:1017B000DF0510F02197F3CFAE014F5F5F4F4E1959
:1017C0005F09D80115965C934E931497CE14DF04ED
:1017D00020F4B701C6010E94BF0FD801ED91FC9122
:1017E000119714968D919C911597E80FF91F10820F
:1017F000DF91CF911F910F91FF90EF90DF90CF90ED
:10180000BF90AF900895FC0180819181009711F005
:101810000C946F0F60E070E0CB010895FC018081B3
:101820009181009711F00C946B0F60E070E0CB0198
:1018300008950C940E0C1F920F920FB60F92112464
:101840002F938F939F93EF93FF938091C00090917C
:10185000C6008C71E0911501EF5FEF7120911401CA
:10186000E21739F0E0931501F0E0E85EFE4F908357
:1018700001C082E090911301892B80931301FF91A5
:10188000EF919F918F912F910F900FBE0F901F900E
:1018900018951F920F920FB60F9211248F939F935A
:1018A000EF93FF939091170180911601981769F0BB
:1018B000E0911601EF5FEF71E0931601F0E0E85C54
:1018C000FE4F80818093C60005C08091C1008F7D4E
:1018D0008093C100FF91EF919F918F910F900FBE68
:1018E0000F901F90189510921701109216011092E8
:1018F00015011092140197FF03C022E02093C0004D
:1019000090789093C5008093C40088E98093C100CB
:1019100086E08093C2000895909115018091140192
:101920009817A9F0909114019F5F9F71E92FF0E043
:10193000E85EFE4F20818091130190931401109274
:10194000130190E0982F8827820F911D089580E061
:1019500091E00895909117019F5F9F71209116016A
:101960009217E1F3E92FF0E0E85CFE4F808390935B
:1019700017018091C10080628093C1000895CF93C8
:10198000DF93EC018991882319F00E94AA0CFACF09
:10199000DF91CF910895CF93DF93FC018491EF0104
:1019A0002196882321F00E94AA0CFE01F7CFDF9137
:1019B000CF910895209115019091140181E0291390
:1019C00001C080E00895CDB7DEB7CB5FD1400FB640
:1019D000F894DEBF0FBECDBF60E088E00E94AC018E
:1019E00087E690E00E94730C7894FE01EA50FE4F67
:1019F0001192119284E0DF011D928A95E9F71A8213
:101A00001982FE01339683EF91E0DF019C011D9264
:101A100021503040E1F786EFA82EBB24B394AC0EE2
:101A2000BD1E35E0A30EB11CCE0101967C018E01D6
:101A30000A501E4F0E941B01D8018D938D01AA15DB
:101A4000BB05C1F7C550DE4F1882CB5FD140BE0148
:101A50006A507E4FC7010E94DA0F66E071E0CE0146
:101A60008A509E4F0E94F00F6C01892BF9F4F70108
:101A700001900020E9F731978F010E191F094701E6
:101A8000C016D1064CF4F40181914F010E94AA0CBA
:101A9000FFEFCF1ADF0AF4CF80E00E94AA0C8FE993
:101AA0009FE00197F1F700C000001982CA50DE4F95
:101AB0001882C65FD140BBCF0895EF920F931F935A
:101AC000CF93DF93E80134E047FD34E1042E000CAE
:101AD000550B57FF03C0519541955109E32E022F35
:101AE000242FAE010E94D910CE01DF91CF911F911A
:101AF0000F91EF9008950F931F93CF93DF93823050
:101B0000910510F482E090E0E0915A01F0915B01C0
:101B100030E020E0B0E0A0E0309799F421153105E5
:101B200009F447C0281B390B24303105C0F58A81E0
:101B30009B816115710571F1FB0193838283FE0125
:101B400011C0408151810281138148175907F8F073
:101B50004817590799F4109761F012960C93129751
:101B600013961C933296CF01DF91CF911F910F9165
:101B7000089500935A0110935B01F4CF21153105AC
:101B800019F04217530718F49A01BD01EF01DF0164
:101B9000F801C2CF90935B0180935A01D0CFFE0130
:101BA000E20FF31F819391932250310939832883E7
:101BB000DACF2091580130915901232B41F4209123
:101BC0000201309103013093590120935801209173
:101BD0000001309101012115310541F42DB73EB7C7
:101BE0004091040150910501241B350BE0915801EF
:101BF000F0915901E217F307A0F42E1B3F0B2817B1
:101C0000390778F0AC014E5F5F4F2417350748F075
:101C10004E0F5F1F50935901409358018193919348
:101C2000A2CFF0E0E0E09FCFCF93DF930097E9F001
:101C3000FC01329713821282C0915A01D0915B014C
:101C4000DE0130E020E02097A1F420813181820F75
:101C5000931F20915801309159012817390709F035
:101C600067C0F0935901E0935801DF91CF91089537
:101C7000DA01AE17BF0708F040C012964D915C9193
:101C800013979D014115510599F7D9011396FC93BE
:101C9000EE9312974D915D91A40FB51FEA17FB07C4
:101CA00079F4808191810296840F951FD901119654
:101CB0009C938E938281938113969C938E9312971B
:101CC000B0E0A0E08A819B810097B9F5FE01819187
:101CD0009191E80FF91F80915801909159018E1749
:101CE0009F0719F6109761F510925B0110925A0147
:101CF000D0935901C0935801B8CFB383A2834081D8
:101D00005181840F951FA817B90771F44E5F5F4F7B
:101D10008D919C911197480F591F518340831296C2
:101D20008D919C91938382832115310509F0ADCF6C
:101D3000F0935B01E0935A0198CFDE01EC01C2CF32
:101D400013961C921E921297D3CFB0E0A0E0EBEA5C
:101D5000FEE00C94AF158C01009751F4CB010E946A
:101D60007B0D8C01C801CDB7DEB7EEE00C94CB152E
:101D7000FC01E60FF71F9C0122503109E217F3071F
:101D800008F4A6C0D901CD91DC911197C617D707E9
:101D900098F0C530D10530F3CE0104978617970728
:101DA00008F3C61BD70B2297C193D1936D937C93F5
:101DB000CF010E94140ED6CF4B018C1A9D0A5C01F4
:101DC000AC0EBD1EA0915A01B0915B01712C612C2B
:101DD000F12CE12C109731F5809158019091590127
:101DE0008A159B0509F065C06616770608F061C084
:101DF0008091000190910101009741F48DB79EB749
:101E00004091040150910501841B950BE817F907D7
:101E100008F05EC0F0935901E0935801F901718315
:101E20006083A0CF8D919C911197AA15BB05B9F540
:101E30006C0142E0C40ED11CC814D90480F1AE017B
:101E4000461B570B480F591F1296DC90129713969A
:101E5000AC915A01B2E0AB0EB11CB5E0AB16B104C7
:101E600080F0D282A38351834083D9016D937C9308
:101E7000E114F10479F0D7011396FC93EE931297D5
:101E800071CF22968C0F9D1FF90191838083ED2DD8
:101E9000FA2FEECFF0935B01E0935A0163CF6816FF
:101EA000790608F43C017D0112960D90BC91A02D9D
:101EB00091CFCB010E947B0D7C01009749F0AE01D0
:101EC000B8010E94BF0FC8010E94140E87014ACFBB
:101ED00010E000E047CF662777270C943B121F9352
:101EE000FC0199278827BC01E89411911032E9F38D
:101EF000193010F01E30C8F31B3251F01D3249F476
:101F0000689406C00E947210610F711D811D911DA1
:101F1000119110531A30B0F33EF49095809570955E
:101F200061957F4F8F4F9F4F1F91089591110C9492
:101F30005114803219F089508550C8F708959111D5
:101F4000089581548A5108F4805E855A089591114C
:101F5000089581568A5108F4805285580895FB01EE
:101F6000DC0105900D920020E1F70895FC01059039
:101F70000020E9F7809590958E0F9F1F0895FB0133
:101F8000DC0102C001900D9241505040D8F70895F5
:101F90006817790768F4FB01DC01E40FF51FA40F53
:101FA000B51F02C002900E9241505040D8F70895DC
:101FB0000C94BF0FFB01DC010D900020E9F7119795
:101FC00001900D920020E1F70895FC0181918617A0
:101FD00021F08823D9F7992708953197CF010895E3
:101FE000FB01DC018D91019080190110D9F3990B4F
:101FF0000895FB01DC0101900D920020E1F70895A6
:10200000FB01DC014150504030F08D91019080196E
:1020100019F40020B9F7881B990B0895FB01DC0126
:102020004150504048F001900D920020C9F701C086
:102030001D9241505040E0F70895FC0181E090E08E
:102040000190061609F4CF010020D1F701970895F9
:10205000FB0151915523A9F0BF01DC014D914517BA
:102060004111E1F759F4CD010190002049F04D9163
:1020700040154111C9F3FB014111EFCF81E090E020
:10208000019708954532510520F4423010F00C9428
:102090004D10FB011082CB010895BB274A3031F46B
:1020A000992322F4BDE2909581959F4F0C94C01026
:1020B0002532310520F4223010F00C946310FA011F
:1020C0001082CA010895BB272A3051F4992342F4A3
:1020D000BDE290958095709561957F4F8F4F9F4F92
:1020E0000C949310592F482F372F262F660F771FE8
:1020F000881F991F660F771F881F991F620F731F14
:10210000841F951F660F771F881F991F089525321A
:10211000310520F4223010F00C949210FA01108254
:10212000CA010895BB27FA01A62F62177105810520
:102130009105330B30FB66F0AA27660F771F881FC7
:10214000991FAA1FA21710F0A21B63953850A9F778
:10215000A05DAA3308F0A95DA19336F7B111B19340
:102160001082CA010C946C144532510520F442309F
:1021700010F00C94BF10FB011082CB010895BB2717
:10218000FB015527AA27880F991FAA1FA41710F033
:10219000A41B83955051B9F7A05DAA3308F0A95D3F
:1021A000A193009779F7B111B1931192CB010C94DF
:1021B0006C14A9E0B0E0EFEDF0E10C94B1156A0108
:1021C000F22EB02E102F0BE30B1508F41BE31F5F4C
:1021D000012F27E0AE014F5F5F4F0E947913BC01D2
:1021E0008981982F99709130C9F19BE2E1FC04C07C
:1021F0009E2D9170E0FC90E25E2D5071E82FE8700A
:1022000083FF48C083E0911184E0EF2DE81B8F1518
:1022100008F0E0E0552371F1992319F0D6019D9360
:102220006D01C6010396E2FE29C02EE4D6012C936F
:1022300031E411963C93119712962C932E2F382F40
:10224000492F50E221111FC0E80FF92FF11D108214
:102250008EEF9FEF2996ECE00C94CD159DE2CCCF4C
:10226000D9014D9381509D018111FACFCE0ED11C21
:10227000E0E0D2CF8E2F960140E2F6CF2EE6D601D7
:102280002C9331E6D6CFA32FB42F5D9321503A2F54
:102290004B2FD8CF482F447082FF41C083E091116B
:1022A00084E08F1510F4EF2DE81B552359F1992385
:1022B00019F0D6019D936D01C6010396E2FE26C07A
:1022C00029E4D6012C932EE411962C93119726E441
:1022D00012962C932E2F382F492F50E2222309F4E7
:1022E000B3CFA32FB42F5D9321503A2F4B2FF6CFAE
:1022F000D9014D9381509D018111FACFCE0ED11C91
:10230000E0E0D5CF8E2F960140E2F6CF29E6D60148
:102310002C932EE611962C93119726E6D9CF9B018C
:1023200077FF02C030E020E0A1E0B0E0911102C0F0
:10233000B0E0A0E0F9013196AE0FBF1F8B2C912CBD
:10234000BB20F1F05401EFEFAE1ABE0AAA0DBB1D7F
:10235000FA161B0619F014F04F2D4A1B511145C0F7
:10236000E3FC08C07601A42FB0E2A1110CC0C40E9A
:10237000D11C40E091113BC0D601942F50E30AC01C
:10238000B12CA12CE3CFF701B1937F01A150EDCF88
:102390005D9391509111FCCFC40ED11C40E02DC033
:1023A00001E03AC050E354C06217730739F4A63312
:1023B00020F4A53319F4B11101C051E3D6015C93A7
:1023C000242F382F592F60E2211108C0480F592FB0
:1023D000511DFA01108290E080E03CCFE32FF52FF1
:1023E000619321503E2F5F2FEFCF992331F0D6011B
:1023F0009D936D01552309F4BFCF012F060FAA81CC
:10240000B82FB07184FF03C0A13309F40150101636
:102410003CF6093008F008E0FB01E01BF1098F01F0
:10242000EE24FF24E818F9088EE2B82E621773072D
:102430000CF4B8CF021713070CF0B4CFFB01E21B6A
:10244000F30B81E090E08C0F9D1FE80FF91F518185
:1024500021503109C60101962E153F050CF4A4CF79
:10246000F60150832F3F320721F4C6010296F60190
:10247000B1826C01DBCFB0E0A0E0E1E4F2E10C94CA
:10248000B1157C016B016115710519F0FB01918398
:102490008083E7010991802F90E00E94960F5C01F4
:1024A000892BB1F50D32B1F50881E701229611E0D3
:1024B0007E01F1E0EF1AF10843E050E060E770E0E0
:1024C000C7010E945414892B61F57E0182E0E80E59
:1024D000F11C45E050E06BE670E0C7010E94541427
:1024E000892B21F47E0197E0E90EF11CC114D1047F
:1024F00019F0F601F182E08260E070E080E89FE789
:10250000112309F4F1C060E070E080E89FEFECC0B7
:102510007E01BFCF0B3219F40881E701229610E04B
:10252000C7CF43E050E068E670E0C7010E94541452
:10253000892B61F4C114D10421F02296F601D183D4
:10254000C08360E070E080EC9FE7CEC0F12CE12C0E
:1025500020E030E0A901F0EDF00FFA3058F5E12F5E
:10256000E260812F887012FF08C0811103C0FFEF65
:10257000EF1AFF0A09911E2FEECF882319F081E090
:10258000E81AF108A5E0B0E00E94A0159B01AC019B
:10259000220F331F441F551F2F0F311D411D511D89
:1025A000283999E93907490799E1590718F3E12FC3
:1025B000E660E0CFFE3F29F413FD3AC0E12FE8606A
:1025C000D9CF0F7D0534A1F588818D3241F410619A
:1025D000BE016E5F7F4F8981E2E0F0E007C0BE017F
:1025E0008B32B9F36F5F7F4FE1E0F0E08053EB0196
:1025F000CE1BDF0B8A30E0F4E0E8AE16ECE0BE065E
:102600005CF4F501EE0FFF1FEE0FFF1FAE0EBF1EB5
:10261000AA0CBB1CA80EB11CEB01899180538A3017
:1026200090F114FF03C0B194A194B108EA0CFB1C13
:1026300011FF07C0C114D10421F02197F601D18305
:10264000C083CA01B9010E9481141370133009F4C8
:1026500090584B015C0120E030E0A9010E947C14FD
:10266000882309F43FC0CFE9D0E0F7FE05C0F1941C
:10267000E194F108C7E8D0E06E01F8E1CF1AD10883
:1026800000E210E00FC0BE01B7CFFE0125913591E9
:1026900045915491E01AF10AC501B4010E94E21477
:1026A0004B015C01D501C401E016F10674F72497D3
:1026B00015950795CC15DD05A9F78A2F880F8B2F67
:1026C000881F8F3F49F020E030E0A901C501B40127
:1026D0000E947C14811106C082E290E090935D011B
:1026E00080935C01C501B401CDB7DEB7ECE00C947A
:1026F000CD15283008F027E03327DA01990F311D76
:1027000087FD916000966105710539F432602E5F96
:102710003D9330E32A95E1F708959F3F30F08038EC
:102720007105610509F03C5F3C5F3D93913008F015
:102730008068911DDF93CF931F930F93FF92EF92C9
:10274000192F987F9695E92F96959695E90FFF2773
:10275000E350FF4F99273327EE24FF24A701E70119
:1027600005900894079428F4360FE71EF81E491FB9
:10277000511D660F771F881F991F0694A1F70590BA
:10278000079428F4E70EF81E491F561FC11D770F46
:10279000881F991F661F0694A1F70590079428F4D7
:1027A000F80E491F561FC71FD11D880F991F661F9E
:1027B000771F0694A1F70590079420F4490F561F40
:1027C000C71FD81F990F661F771F881F0694A9F788
:1027D00084911095177041F0D695C79557954795F8
:1027E000F794E7941A95C1F7E3EAF0E0689415903E
:1027F000159135916591959105907FE27395E1185A
:10280000F10A430B560BC90BD009C0F7E10CF11EBE
:10281000431F561FC91FD01D7EF4703311F48A95D3
:10282000E6CFE894015030F0080F0AF400270217B1
:1028300008F4202F2395022F7A3328F079E37D9333
:102840002A95E9F710C07D932A9589F60694979505
:102850006795379517951794E118F10A430B560BB6
:10286000C90BD00998F023957E9173957A3308F0BF
:1028700070E37C932013B8F77E9170617D9330F004
:10288000839571E37D9370E32A95E1F71124EF902E
:10289000FF900F911F91CF91DF91992787FD909520
:1028A0000895992788270895FB01DC014150504085
:1028B00088F08D9181341CF08B350CF4805E65912D
:1028C00061341CF06B350CF4605E861B611171F392
:1028D000990B0895881BFCCFDC01FC01672F7191D7
:1028E0007723E1F7329704C07C916D9370836291F6
:1028F000AE17BF07C8F308950E94BE1408F481E024
:102900000895E89409C097FB3EF4909580957095E2
:1029100061957F4F8F4F9F4F9923A9F0F92F96E92B
:10292000BB279395F695879577956795B795F111A0
:10293000F8CFFAF4BB0F11F460FF1BC06F5F7F4F3D
:102940008F4F9F4F16C0882311F096E911C077234F
:1029500021F09EE8872F762F05C0662371F096E858
:10296000862F70E060E02AF09A95660F771F881F27
:10297000DAF7880F9695879597F90895990F0008CB
:10298000550FAA0BE0E8FEEF16161706E807F90741
:10299000C0F012161306E407F50798F0621B730BDC
:1029A000840B950B39F40A2661F0232B242B252B5D
:1029B00021F408950A2609F4A140A6958FEF811D00
:1029C000811D08950E94F5140C9466150E945815F7
:1029D00038F00E945F1520F0952311F00C944F15EC
:1029E0000C94551511240C949A150E94771570F3C8
:1029F000959FC1F3950F50E0551F629FF001729FA4
:102A0000BB27F00DB11D639FAA27F00DB11DAA1FB2
:102A1000649F6627B00DA11D661F829F2227B00DFF
:102A2000A11D621F739FB00DA11D621F839FA00D8A
:102A3000611D221F749F3327A00D611D231F849FDA
:102A4000600D211D822F762F6A2F11249F57504031
:102A50009AF0F1F088234AF0EE0FFF1FBB1F661FAC
:102A6000771F881F91505040A9F79E3F510580F075
:102A70000C944F150C949A155F3FE4F3983ED4F3F1
:102A8000869577956795B795F795E7959F5FC1F719
:102A9000FE2B880F911D9695879597F9089597F9C4
:102AA0009F6780E870E060E008959FEF80EC0895F4
:102AB00000240A941616170618060906089500241D
:102AC0000A9412161306140605060895092E039497
:102AD000000C11F4882352F0BB0F40F4BF2B11F40B
:102AE00060FF04C06F5F7F4F8F4F9F4F089557FD6A
:102AF0009058440F551F59F05F3F71F04795880F6C
:102B000097FB991F61F09F3F79F087950895121602
:102B100013061406551FF2CF4695F1DF08C01616AE
:102B200017061806991FF1CF86957105610508945F
:102B30000895E894BB2766277727CB0197F9089576
:102B40000E94E215A59F900DB49F900DA49F800D4B
:102B5000911D112408952F923F924F925F926F9290
:102B60007F928F929F92AF92BF92CF92DF92EF921D
:102B7000FF920F931F93CF93DF93CDB7DEB7CA1B9E
:102B8000DB0B0FB6F894DEBF0FBECDBF09942A88C9
:102B9000398848885F846E847D848C849B84AA8471
:102BA000B984C884DF80EE80FD800C811B81AA81FE
:102BB000B981CE0FD11D0FB6F894DEBF0FBECDBFC9
:102BC000ED010895A29FB001B39FC001A39F700DB6
:102BD000811D1124911DB29F700D811D1124911D25
:062BE0000895F894FFCFF8
:0C2BE60000005E0120003131313131006F
:00000001FF
