:100000000C94FC000C9419010C9419010C94190126
:100010000C9419010C9419010C9419010C941901F8
:100020000C9419010C9419010C9419010C941901E8
:100030000C9419010C9419010C9419010C941901D8
:100040000C9419010C9419010C94200C0C944E0C76
:100050000C9419010C9419010C9419010C941901B8
:100060000C9419010C941901000000080002010011
:100070000003040700000000000000000102040863
:100080001020408001020408102001020408102002
:10009000040404040404040402020202020203032E
:1000A00003030303000000002300260029000000D2
:1000B0000000250028002B0000000000240027007D
:1000C0002A004E414E494E495459494E46CDCCCC5A
:1000D0003D0AD7233C17B7D13877CC2B329595E61C
:1000E000241FB14F0A000020410000C84200401CFC
:1000F0004620BCBE4CCA1B0E5AAEC59D7400407A49
:1001000010F35A00A0724E18090010A5D4E80000A0
:10011000E87648170000E40B54020000CA9A3B003E
:100120000000E1F505000080969800000040420FB5
:10013000000000A08601000000102700000000E879
:1001400003000000006400000000000A000000003E
:10015000000100000000002C76D888DC674F0823DF
:10016000DFC1DFAE59E1B1B796E5E3E453C63AE645
:1001700051997696E8E6C28426EB898C9B62ED4025
:100180007C6FFCEFBC9C9F40F2BAA56FA5F4900574
:100190005A2AF75C936B6CF9676DC11BFCE0E40DA8
:1001A00047FEF520E6B500D0ED902E03009435779C
:1001B000050080841E080000204E0A000000C80CC4
:1001C000333333330F986E12831141EF8D2114892D
:1001D0003BE65516CFFEE6DB18D1844B381BF77C87
:1001E0001D901DA4BBE424203284725E228100C9CC
:1001F000F124ECA1E53D270011241FBECFEFD8E08C
:10020000DEBFCDBF11E0A0E0B1E0E6E4FCE202C059
:1002100005900D92A830B107D9F721E0A8E0B1E030
:1002200001C01D92AA35B207E1F70E94E80C0C94B8
:1002300021160C94000061E0803341F48CE00E94B0
:10024000ED018FE59AEE0197F1F70AC08CE00E946C
:10025000ED019FEF26E781E0915020408040E1F7DB
:1002600000C0000060E08CE00E94ED018FE59AEE96
:100270000197F1F700C000000895833081F028F461
:10028000813099F08230A1F008958730A9F088304C
:10029000B9F08430D1F4809180008F7D03C08091CB
:1002A00080008F7780938000089584B58F7702C097
:1002B00084B58F7D84BD08958091B0008F7703C091
:1002C0008091B0008F7D8093B00008959FB7F8941F
:1002D00080910C01882319F0815080930C0180914A
:1002E0000C01811105C08CB58F7B8CBD10920B0168
:1002F0009FBF08959FB7F894882349F0813011F487
:1003000082E006C082E080930B0180E001C081E0C2
:1003100020910A01822B80930A0180910B018111A7
:1003200003C081E080930B019FBF089590910B0162
:100330009230B1F02FB7F894882321F0813021F466
:1003400082E003C081E001C080E0809590910A01C5
:10035000892380930A01811102C010920B012FBFE3
:100360000895CF93DF9390E0FC01E458FF4F249170
:10037000FC01E057FF4F8491882361F190E0880FE2
:10038000991FFC01E854FF4FC591D491FC01E2553F
:10039000FF4FA591B491611109C09FB7F89488816E
:1003A000209582238883EC912E230BC0623061F468
:1003B0009FB7F8948881322F309583238883EC91FE
:1003C0002E2B2C939FBF06C08FB7F894E8812E2B5D
:1003D00028838FBFDF91CF9108951F93CF93DF9331
:1003E000282F30E0F901E859FF4F8491F901E458D2
:1003F000FF4FD491F901E057FF4FC491CC23C1F0D6
:10040000162F81110E943D01EC2FF0E0EE0FFF1F2F
:10041000E255FF4FA591B4919FB7F894111104C014
:100420008C91D095D82302C0EC91DE2BDC939FBF3A
:10043000DF91CF911F910895CF93CFB7F89480911A
:100440000C01811127C0EAE9F0E08491E6E8F0E0D0
:100450009491E82FF0E0EE0FFF1FE854FF4FA591B5
:10046000B491EC91E92321F461E08AE00E94ED016E
:1004700061E08AE00E94B1018CB580618CBD8CB5D1
:1004800080648CBD61E08DE00E94B10161E08BE091
:100490000E94B10180910C018F5F80930C01CFBF4E
:1004A000CF910895CF93DF93282F30E0F901E859D9
:1004B000FF4F8491F901E458FF4FD491F901E057BF
:1004C000FF4FC491CC2391F081110E943D01EC2F8C
:1004D000F0E0EE0FFF1FEC55FF4FA591B491EC91AA
:1004E000ED2381E090E021F480E002C080E090E024
:1004F000DF91CF910895FC01808191810C94F90DD9
:10050000CF93DF93EC0188819981009711F00E94CD
:10051000F90D198218821D821C821B821A82DF91BA
:10052000CF9108950F931F93CF93DF93EC018B012D
:100530006F5F7F4F888199810E94910E009731F003
:10054000998388831B830A8381E001C080E0DF9167
:10055000CF911F910F910895CF93DF93EC01888184
:100560009981892B29F08A819B818617970760F4EE
:10057000CE010E949202882341F08C819D81892BBB
:1005800019F4E881F981108281E0DF91CF9108951B
:10059000EF92FF920F931F93CF93DF93EC017B01B8
:1005A0008A01BA010E94AC02811104C0CE010E94EE
:1005B000800207C01D830C83B701888199810E9446
:1005C000DE0FCE01DF91CF911F910F91FF90EF9041
:1005D0000895FC0111821082138212821582148206
:1005E0006115710551F0FB0101900020E9F7319789
:1005F000AF01461B570B0C94C8020895EF92FF926F
:100600000F931F93CF93DF93EC017B018A01BA0113
:100610000E94AC02811104C0CE010E94800207C07A
:100620001D830C83B701888199810E949F0FCE01A1
:10063000DF91CF911F910F91FF90EF9008950F934D
:100640001F93CF93DF938C01EB01FC01808191819B
:100650000097D1F0688179816115710599F023E4E3
:100660003DE0232B79F0428153812C813D8142175B
:10067000530740F00E94DE0F8C819D81F801958325
:10068000848313C00E94F90D88819981F8019183B8
:1006900080838A819B81938382838C819D819583D2
:1006A0008483198218821B821A821D821C82DF9128
:1006B000CF911F910F910895FC0111821082138236
:1006C0001282158214820C941F03FC011182108285
:1006D00013821282158214820C941F03CF93DF932E
:1006E000EC01FB018617970761F06081718161154C
:1006F000710529F0448155810E94C80202C00E9400
:100700008002CE01DF91CF910895FC011182108209
:1007100013821282158214820C946E03CF93DF939E
:10072000EC018617970711F00E941F03CE01DF919D
:10073000CF910895CF93DF93EC016817790711F0FB
:100740000E941F03CE01DF91CF910895CF93DF93D5
:10075000EC016115710559F0FB0101900020E9F7EA
:100760003197AF01461B570B0E94C80202C00E947E
:100770008002CE01DF91CF910895CF93DF9300D017
:10078000CDB7DEB7FC01118210821382128215826E
:10079000148269831A82BE016F5F7F4F0E94A60395
:1007A0000F900F90DF91CF9108950F931F93CF93E8
:1007B000DF93CDB7DEB729970FB6F894DEBF0FBE33
:1007C000CDBF8C01862FF801118210821382128214
:1007D0001582148250E0BE016F5F7F4F90E00E944F
:1007E0009910BE016F5F7F4FC8010E94A603299632
:1007F0000FB6F894DEBF0FBECDBFDF91CF911F9132
:100800000F9108950F931F93CF93DF93CDB7DEB76A
:1008100062970FB6F894DEBF0FBECDBF8C01CB013F
:10082000F80111821082138212821582148250E024
:10083000BE016F5F7F4F0E942710BE016F5F7F4F29
:10084000C8010E94A60362960FB6F894DEBF0FBEE1
:10085000CDBFDF91CF911F910F9108950F931F93FB
:10086000CF93DF93CDB7DEB761970FB6F894DEBFB5
:100870000FBECDBF8C01CB01F80111821082138213
:1008800012821582148250E0BE016F5F7F4F0E947A
:100890009910BE016F5F7F4FC8010E94A603619649
:1008A0000FB6F894DEBF0FBECDBFDF91CF911F9181
:1008B0000F9108950F931F93CF93DF93CDB7DEB7BA
:1008C000A2970FB6F894DEBF0FBECDBF8C01CB014F
:1008D000BA01F801118210821382128215821482E9
:1008E00030E0AE014F5F5F4F0E943D10BE016F5F71
:1008F0007F4FC8010E94A603A2960FB6F894DEBFF0
:100900000FBECDBFDF91CF911F910F9108950F932F
:100910001F93CF93DF93CDB7DEB7A1970FB6F894AF
:10092000DEBF0FBECDBF8C01CB01BA01F801118231
:100930001082138212821582148230E0AE014F5F62
:100940005F4F0E946C10BE016F5F7F4FC8010E9415
:10095000A603A1960FB6F894DEBF0FBECDBFDF9100
:10096000CF911F910F910895EF92FF920F931F93D4
:10097000CF93DF93CDB7DEB7A1970FB6F894DEBF64
:100980000FBECDBF7C01CB01BA01F70111821082ED
:10099000138212821582148242E0420F8E010F5F91
:1009A0001F4F0E94440DBC01C7010E94A603A196DF
:1009B0000FB6F894DEBF0FBECDBFDF91CF911F9170
:1009C0000F91FF90EF900895EF92FF920F931F9376
:1009D000CF93DF93CDB7DEB7A1970FB6F894DEBF04
:1009E0000FBECDBF7C01CB01BA01F701118210828D
:1009F000138212821582148242E0420F8E010F5F31
:100A00001F4F0E94440DBC01C7010E94A603A1967E
:100A10000FB6F894DEBF0FBECDBFDF91CF911F910F
:100A20000F91FF90EF9008950F931F93CF93DF9353
:100A3000EC018B016115710549F0CB010E94A60FF5
:100A4000AC01B801CE010E94FE0202C00E948002E9
:100A5000CE01DF91CF911F910F910895FC0111827A
:100A6000108213821282158214820C941405EF9264
:100A7000FF920F931F93CF93DF936115710511F4CC
:100A800080E01CC041155105C1F07B01EC018C8157
:100A90009D818A01080F191FB801CE010E94AC0286
:100AA000882371F3288139818C819D81B701820F60
:100AB000931F0E94DE0F1D830C8381E0DF91CF9195
:100AC0001F910F91FF90EF900895FB014481558194
:100AD000608171810C9437056115710551F0FB013E
:100AE00001900020E9F73197AF01461B570B0C949A
:100AF000370580E00895CF93DF9300D0CDB7DEB700
:100B000069831A8241E050E0BE016F5F7F4F0E940F
:100B100037050F900F90DF91CF910895EF92FF92DC
:100B20000F931F93CF93DF9300D000D0CDB7DEB7E4
:100B30007C01862F4AE08E010F5F1F4FB80190E0C5
:100B40000E943210F80101900020E9F73197AF01BF
:100B5000401B510BB801C7010E9437050F900F9041
:100B60000F900F90DF91CF911F910F91FF90EF9019
:100B70000895EF92FF920F931F93CF93DF93CDB71A
:100B8000DEB728970FB6F894DEBF0FBECDBF7C014D
:100B9000CB014AE08E010F5F1F4FB8010E94321057
:100BA000F80101900020E9F73197AF01401B510B8C
:100BB000B801C7010E94370528960FB6F894DEBF2A
:100BC0000FBECDBFDF91CF911F910F91FF90EF909E
:100BD0000895EF92FF920F931F93CF93DF93CDB7BA
:100BE000DEB727970FB6F894DEBF0FBECDBF7C01EE
:100BF000CB014AE08E010F5F1F4FB8010E94A41085
:100C0000F80101900020E9F73197AF01401B510B2B
:100C1000B801C7010E94370527960FB6F894DEBFCA
:100C20000FBECDBFDF91CF911F910F91FF90EF903D
:100C30000895EF92FF920F931F93CF93DF93CDB759
:100C4000DEB72E970FB6F894DEBF0FBECDBF7C0186
:100C5000CB01BA012AE08E010F5F1F4FA8010E944D
:100C60004810F80101900020E9F73197AF01401BCF
:100C7000510BB801C7010E9437052E960FB6F894A4
:100C8000DEBF0FBECDBFDF91CF911F910F91FF90BF
:100C9000EF900895EF92FF920F931F93CF93DF93FE
:100CA000CDB7DEB72D970FB6F894DEBF0FBECDBF20
:100CB0007C01CB01BA012AE08E010F5F1F4FA80112
:100CC0000E947710F80101900020E9F73197AF01F9
:100CD000401B510BB801C7010E9437052D960FB676
:100CE000F894DEBF0FBECDBFDF91CF911F910F9162
:100CF000FF90EF900895EF92FF920F931F93CF9381
:100D0000DF93CDB7DEB764970FB6F894DEBF0FBEA2
:100D1000CDBF7C01CB01BA018E010F5F1F4F22E0D6
:100D200044E00E94440DFC0101900020E9F7319756
:100D3000AF01481B590BBC01C7010E9437056496DF
:100D40000FB6F894DEBF0FBECDBFDF91CF911F91DC
:100D50000F91FF90EF900895EF92FF920F931F93E2
:100D6000CF93DF93CDB7DEB764970FB6F894DEBFAD
:100D70000FBECDBF7C01CB01BA018E010F5F1F4FAB
:100D800022E044E00E94440DFC0101900020E9F7BC
:100D90003197AF01481B590BBC01C7010E943705B1
:100DA00064960FB6F894DEBF0FBECDBFDF91CF9132
:100DB0001F910F91FF90EF900895EF92FF920F9384
:100DC0001F93CF93DF936115710511F480E01EC06E
:100DD0008B01EC01CB010E94A60F0097B1F02C8192
:100DE0003D817C01E20EF31EB701CE010E94AC02F0
:100DF000882361F3288139818C819D81B801820F1C
:100E0000931F0E949F0FFD82EC8281E0DF91CF91C2
:100E10001F910F91FF90EF900895CF93DF93EC0116
:100E2000FB0144815581608171810E9437058111E8
:100E300003C0CE010E948002CE01DF91CF910895C0
:100E4000CF93DF93EC016115710561F0FB01019017
:100E50000020E9F73197AF01461B570B0E94370579
:100E6000811103C0CE010E948002CE01DF91CF919B
:100E70000895CF93DF93EC010E947B05811103C09D
:100E8000CE010E948002CE01DF91CF910895CF93D1
:100E9000DF93EC010E948E05811103C0CE010E94F8
:100EA0008002CE01DF91CF910895CF93DF93EC01C3
:100EB0000E94B905811103C0CE010E948002CE01BB
:100EC000DF91CF910895CF93DF93EC010E94E90564
:100ED000811103C0CE010E948002CE01DF91CF912B
:100EE0000895CF93DF93EC010E941906811103C08E
:100EF000CE010E948002CE01DF91CF910895CF9361
:100F0000DF93EC010E944A06811103C0CE010E94CA
:100F10008002CE01DF91CF910895CF93DF93EC0152
:100F20000E947B06811103C0CE010E948002CE0187
:100F3000DF91CF910895CF93DF93EC010E94AC062F
:100F4000811103C0CE010E948002CE01DF91CF91BA
:100F50000895CF93DF93EC010E94DD06811103C059
:100F6000CE010E948002CE01DF91CF910895CF93F0
:100F7000DF93DC01ED91FC91EB01A881B981309701
:100F800011F01097C9F4109759F0EB012C813D81B5
:100F9000232B31F08C9190E091958195910914C0AB
:100FA000309781F0DC0114968D919C911597892BD7
:100FB00049F0808190E008C0BD01CF01DF91CF9161
:100FC0000C94D50F80E090E0DF91CF910895FC0163
:100FD00044815581FB01248135814217530729F44F
:100FE0000E94B70721E0892B09F020E0822F0895A5
:100FF000FC0124813581232B31F421E06115710539
:10100000A1F0FB0108C0FC0180819181611571058F
:1010100031F421E0FC018081882339F005C00E9471
:10102000D50F21E0892B09F020E0822F08950E943E
:10103000B707892F881F8827881F08950E94B70740
:1010400021E0181619060CF020E0822F08950E9466
:10105000B70721E0181619060CF420E0822F089536
:101060000E94B707892F8095881F8827881F0895B9
:10107000EF92FF920F931F93CF93DF9386179707FB
:1010800031F1FC0124813581FB0144815581241714
:101090003507D9F4232BD9F0DC010D911C91C081C7
:1010A000D181F80181918F01882389F0082E000CED
:1010B000990B0E948F0F7C018991082E000C990BCF
:1010C0000E948F0FE816F90661F380E001C081E00D
:1010D000DF91CF911F910F91FF90EF900895DB0169
:1010E0001496ED91FC911597DC0114962D913C918D
:1010F00015972E1B3F0B24173507A0F02D913C911F
:101100002115310579F0DB016D917C916115710537
:1011100049F0CA01AF01820F931F0E94E50F21E041
:10112000892B09F020E0822F0895FC01448155812C
:10113000FB01248135814217530720F040E050E045
:101140000C946F0880E00895FC0124813581FB0137
:101150004481558124173507A0F0FC0180819181DD
:10116000009779F0FB01608171816115710549F08B
:10117000241B350B820F931F0E94D50F21E0892B72
:1011800009F020E0822F0895FC0124813581621747
:10119000730730F480819181FC01E60FF71F4083D3
:1011A0000895FC01248135816217730720F4808142
:1011B0009181009729F410920E018EE091E008953C
:1011C000860F971F0895FC012481358162177307EC
:1011D00048F480819181009729F0FC01E60FF71F08
:1011E0008081089580E008950C94E3080F931F9385
:1011F000CF93DF934115510519F16115710501F187
:10120000DC011496ED91FC9115972E173F0718F00D
:10121000FB01108215C0E21BF30BEA012197EC17CA
:10122000FD0708F4EF018B01FC0160817181620F01
:10123000731FAE01C8010E94F30FC00FD11F1882A7
:10124000DF91CF911F910F910895CF93DF93FC0110
:10125000248135814217530778F4C081D181062E4D
:10126000000C770BCE01840F951F0E94CA0F0097C8
:1012700019F08C1B9D0B02C08FEF9FEFDF91CF9178
:10128000089540E050E00C942509CF93DF93FC01D2
:10129000248135814217530780F4FB01DC01CD9195
:1012A000DC9160817181CE01840F951F0E940D1029
:1012B000009719F08C1B9D0B02C08FEF9FEFDF9101
:1012C000CF91089540E050E00C944509DF92EF92F1
:1012D000FF920F931F93CF93DF93DC0114962D9110
:1012E0003C9115974217530718F08FEF9FEF1DC0E1
:1012F0008C01EA012196DC01ED91FC911197EC0F34
:10130000FD1FD0801082ED90FC90062E000C770B14
:10131000C7010E940210CE0DDF1DD882009729F36D
:10132000F80120813181821B930BDF91CF911F91B6
:101330000F91FF90EF90DF900895FC01448155815B
:10134000415051090C946609AF92BF92CF92DF923F
:10135000EF92FF920F931F93CF93DF937B018A014C
:10136000FB01448155814115510561F1FC01248146
:1013700035812115310531F12417350718F1021790
:10138000130718F0890101501109FC01A080B180F8
:10139000C501DFEFCFEF6501C00ED11EC816D9061B
:1013A000A0F0F701608171810E940D10009769F033
:1013B0009C012A193B090217130710F0D22FC32FE3
:1013C0000196ECCF8FEF9FEF02C08D2F9C2FDF9106
:1013D000CF911F910F91FF90EF90DF90CF90BF9032
:1013E000AF900895FC0144815581FB012481358132
:1013F000421B530B0C94A409BF92CF92DF92EF9241
:10140000FF920F931F93CF93DF937C016B018A01AF
:10141000E9012417350720F4812F8901C42FD82F23
:1014200066E071E0C7010E94E902D60114968D9131
:101430009C91159708171907C8F48C179D0708F495
:10144000EC01D601ED91FC911197EC0FFD1FB080DE
:1014500010826D917C91600F711FC7010E94A603DD
:10146000D601ED91FC91EC0FFD1FB082C701DF9119
:10147000CF911F910F91FF90EF90DF90CF90BF9091
:101480000895DC01ED91FC91309741F08081882333
:1014900029F0861301C040833196F8CF08952F922A
:1014A0003F924F925F926F927F928F929F92AF92F4
:1014B000BF92CF92DF92EF92FF920F931F93CF9341
:1014C000DF93FC01448055804114510409F4CEC0DF
:1014D000FB01848095808114910409F4C7C07A01CE
:1014E0006B018C01FA016480758068187908FC0131
:1014F000C081D18161147104B9F4F60160817181F8
:10150000CE010E940D10EC01009709F4AFC0F70165
:1015100060817181448155810E94AF0FF701848100
:101520009581C80FD91FE9CF77FE44C05E01F6014F
:1015300060817181C5010E940D102C01009721F17D
:101540004C018A189B08A401B501CE010E94AF0F7F
:10155000C80DD91DF7016081718144815581CE018B
:101560000E94AF0FF70184819581C80FD91FF60142
:10157000A480B580A40CB51CF80184819581860DEA
:10158000971D95838483D3CFB501CE01DF91CF9191
:101590001F910F91FF90EF90DF90CF90BF90AF9091
:1015A0009F908F907F906F905F904F903F902F9083
:1015B0000C94DE0FFB01208031805201B101CE017D
:1015C0000E940D10009731F0EC01C80DD91DA60C3A
:1015D000B71CF4CFA414B50409F448C0F801828103
:1015E00093818A159B0530F4B501C8010E949202CF
:1015F0008823E1F1F801448155814150510957FD9B
:1016000035C0B601C8010E94A409EC0197FD2EC0A7
:10161000F60124813581280F391FF80180819181DD
:10162000820F931F44815581421B530BBC01860DD1
:10163000971D0E94B80FF80184819581860D971D32
:101640009583848320813181F901E80FF91F10828D
:10165000F80180819181F701608171814481558118
:101660008C0F9D1F0E94AF0FAE01C7CFDF91CF91AE
:101670001F910F91FF90EF90DF90CF90BF90AF90B0
:101680009F908F907F906F905F904F903F902F90A2
:101690000895CF93DF93DC011496ED91FC9115979B
:1016A0006E177F0730F54115510519F1DF01A61BB3
:1016B000B70B9A01A417B50708F49D01DB01EC01F3
:1016C00088819981E21BF30BFD83EC83AF01461BFC
:1016D000570B260F371FBC01620F731F8A0F9B1F0A
:1016E0000E94F30FE881F9818C819D81E80FF91F39
:1016F0001082DF91CF9108954FEF5FEF0C94490B6B
:10170000CF93DF93FC01C081D181209751F0888174
:10171000882339F0082E000C990B0E948F0F8993B3
:10172000F6CFDF91CF910895CF93DF93FC01C08175
:10173000D181209751F08881882339F0082E000C40
:10174000990B0E94970F8993F6CFDF91CF9108955F
:10175000AF92BF92CF92DF92EF92FF920F931F93BF
:10176000CF93DF93DC01CD90DC901197C114D104AD
:1017700009F443C01496CD91DC9115972097E9F1B7
:101780008C0176015701BFEFAB1ABB0AF7018081CC
:10179000082E000C990B0E94860F892B11F0750101
:1017A000F1CF2197CC0DDD1D8881082E000C990BFF
:1017B0000E94860F892B29F0CE15DF0510F02197A6
:1017C000F3CFAE014F5F5F4F4E195F09D8011596F9
:1017D0005C934E931497CE14DF0420F4B701C60136
:1017E0000E94AF0FD801ED91FC91119714968D9145
:1017F0009C911597E80FF91F1082DF91CF911F91EF
:101800000F91FF90EF90DF90CF90BF90AF90089531
:10181000FC0180819181009711F00C945F0F60E0D2
:1018200070E0CB010895FC0180819181009711F057
:101830000C945B0F60E070E0CB0108950C94130CE6
:101840001F920F920FB60F9211242F938F939F9395
:10185000EF93FF938091C0009091C6008C71E0914E
:101860001101EF5FEF7120911001E21739F0E09361
:101870001101F0E0EC5EFE4F908301C082E0909198
:101880000F01892B80930F01FF91EF919F918F9111
:101890002F910F900FBE0F901F9018951F920F92CF
:1018A0000FB60F9211248F939F93EF93FF93909114
:1018B000130180911201981769F0E0911201EF5F16
:1018C000EF71E0931201F0E0EC5CFE4F80818093B9
:1018D000C60005C08091C1008F7D8093C100FF913B
:1018E000EF919F918F910F900FBE0F901F901895C1
:1018F0001092130110921201109211011092100116
:1019000097FF03C022E02093C00090789093C50019
:101910008093C40088E98093C10086E08093C20070
:10192000089590911101809110019817A9F090915C
:1019300010019F5F9F71E92FF0E0EC5EFE4F208168
:1019400080910F019093100110920F0190E0982F59
:101950008827820F911D089580E091E0089590916D
:1019600013019F5F9F71209112019217E1F3E92FFC
:10197000F0E0EC5CFE4F8083909313018091C100F6
:1019800080628093C1000895CF93DF93EC01899129
:10199000882319F00E94AF0CFACFDF91CF91089500
:1019A000CF93DF93FC018491EF012196882321F0EE
:1019B0000E94AF0CFE01F7CFDF91CF9108952091E7
:1019C00011019091100181E0291301C080E0089578
:1019D000CF93DF93CDB7DEB7C55FD1400FB6F89494
:1019E000DEBF0FBECDBF61E08CE00E94B10187E693
:1019F00090E00E94780C78948E010F5F1F4F88E072
:101A000091E00E94DF0C8823D1F3198288E091E0F5
:101A10000E94DF0C811102C0780114C0E12CF12C6E
:101A200088E091E00E94DF0C8823D1F30E94910CA2
:101A3000F801EE0DFF1D8083882371F38FEFE81A04
:101A4000F80AEECFF80101900020E9F73197E01B8A
:101A5000F10BC701801B910B8E179F0730F4F70124
:101A600081917F010E941B01EDCF80E30E94AF0CAA
:101A700080E00E94AF0C8FE99FE00197F1F700C072
:101A800000001982BCCF0895EF920F931F93CF935C
:101A9000DF93E80147FD02C034E001C034E1E42FE8
:101AA000440FFF0BF7FF03C0F195E195F109E32E19
:101AB000022F2E2FAE010E94BE10CE01DF91CF91DA
:101AC0001F910F91EF900895CF93DF93823091058E
:101AD00010F482E090E0E0915601F091570120E08F
:101AE00030E0C0E0D0E0309711F1408151814817DB
:101AF0005907C0F04817590761F4828193812097F4
:101B000019F09B838A832BC09093570180935601D1
:101B100026C02115310519F04217530718F49A0110
:101B2000BE01DF01EF010280F381E02DDCCF211542
:101B3000310509F1281B390B2430310590F4129638
:101B40008D919C9113976115710521F0FB01938391
:101B5000828304C09093570180935601FD01329611
:101B600044C0FD01E20FF31F81939193225031098C
:101B70002D933C933AC02091540130915501232B71
:101B800041F42091020130910301309355012093DB
:101B9000540120910001309101012115310541F4DA
:101BA0002DB73EB74091040150910501241B350B20
:101BB000E0915401F0915501E217F307A0F42E1BB8
:101BC0003F0B2817390778F0AC014E5F5F4F2417A1
:101BD000350748F04E0F5F1F509355014093540155
:101BE0008193919302C0E0E0F0E0CF01DF91CF91CB
:101BF00008950F931F93CF93DF93009709F48CC040
:101C0000FC01329713821282009156011091570104
:101C10000115110581F420813181820F931F2091DC
:101C20005401309155012817390779F5F093550182
:101C3000E093540171C0D80140E050E0AE17BF07F7
:101C400050F412962D913C911397AD012115310559
:101C500009F1D901F3CF9D01DA0133832283608139
:101C60007181860F971F8217930769F4EC01288111
:101C70003981260F371F2E5F3F4F318320838A81A2
:101C80009B8193838283452B29F4F0935701E09342
:101C9000560142C01396FC93EE931297ED014991C1
:101CA00059919E01240F351FE217F30771F48081CB
:101CB0009181840F951F029611969C938E93828139
:101CC000938113969C938E931297E0E0F0E0D801F5
:101CD00012968D919C911397009719F0F8018C0141
:101CE000F6CF8D919C9198012E5F3F4F820F931FED
:101CF00020915401309155012817390769F4309724
:101D000029F4109257011092560102C013821282D8
:101D10001093550100935401DF91CF911F910F91C2
:101D20000895A0E0B0E0E7E9FEE00C94DF15EC01D7
:101D3000009721F4CB010E94640DB8C0FC01E60FAE
:101D4000F71F9C0122503109E217F30708F4ACC0D9
:101D5000D9010D911C91119706171707B0F00530A6
:101D6000110508F49FC0C80104978617970708F467
:101D700099C002501109061B170B019311936D9323
:101D80007C93CF010E94F90D8DC05B01A01AB10AAE
:101D90004C01800E911EA0915601B091570140E078
:101DA00050E0E12CF12C109709F44AC0A815B905B0
:101DB000D1F56D907C901197630182E0C80ED11C23
:101DC000CA14DB0480F1A3014A195B096A0182E0AD
:101DD000C80ED11C1296BC9012971396AC91B5E028
:101DE000CB16D10440F0B282A38351834083D90142
:101DF0006D937C930AC00E5F1F4FC301800F911F2C
:101E0000F90191838083EB2DFA2FE114F10431F075
:101E1000D7011396FC93EE93129744C0F0935701A9
:101E2000E09356013FC08D919C9111974817590737
:101E300008F4AC017D0112960D90BC91A02DB3CF9A
:101E4000809154019091550188159905E1F4461748
:101E50005707C8F48091000190910101009741F467
:101E60008DB79EB74091040150910501841B950BDD
:101E7000E817F907C8F4F0935501E0935401F9010C
:101E8000718360830FC0CB010E94640D7C010097B9
:101E900059F0A801BE010E94AF0FCE010E94F90DBA
:101EA000C70104C0CE0102C080E090E0CDB7DEB72C
:101EB000EEE00C94FB15662777270C944C121F93C9
:101EC000FC0199278827BC01E89411911032E9F3AD
:101ED000193010F01E30C8F31B3251F01D3249F496
:101EE000689406C00E945710610F711D811D911DDD
:101EF000119110531A30B0F33EF49095809570957F
:101F000061957F4F8F4F9F4F1F91089591110C94B2
:101F10008114803219F089508550C8F708959111C5
:101F2000089581548A5108F4805E855A089591116C
:101F3000089581568A5108F4805285580895FB010E
:101F4000DC0105900D920020E1F70895FC01059059
:101F50000020E9F7809590958E0F9F1F0895FB0153
:101F6000DC0102C001900D9241505040D8F7089515
:101F70006817790768F4FB01DC01E40FF51FA40F73
:101F8000B51F02C002900E9241505040D8F70895FC
:101F90000C94AF0FFC018191861721F08823D9F7AB
:101FA000992708953197CF010895FB01DC018D91A8
:101FB000019080190110D9F3990B0895FB01DC0100
:101FC00001900D920020E1F70895FB01DC014150E2
:101FD000504030F08D910190801919F40020B9F72C
:101FE000881B990B0895FB01DC014150504048F0DB
:101FF00001900D920020C9F701C01D924150504040
:10200000E0F70895FC0181E090E00190061609F4E4
:10201000CF010020D1F701970895FB01519155237D
:10202000A9F0BF01DC014D9145174111E1F759F4C9
:10203000CD010190002049F04D9140154111C9F3A7
:10204000FB014111EFCF81E090E001970895453207
:10205000510520F4423010F00C943210FB01108234
:10206000CB010895BB274A3031F4992322F4BDE215
:10207000909581959F4F0C94A5102532310520F441
:10208000223010F00C944810FA011082CA01089511
:10209000BB272A3051F4992342F4BDE290958095F4
:1020A000709561957F4F8F4F9F4F0C947810592FEB
:1020B000482F372F262F660F771F881F991F660F0F
:1020C000771F881F991F620F731F841F951F660F4C
:1020D000771F881F991F08952532310520F422307B
:1020E00010F00C947710FA011082CA010895BB27F2
:1020F000FA01A62F6217710581059105330B30FB9C
:1021000066F0AA27660F771F881F991FAA1FA217BC
:1021100010F0A21B63953850A9F7A05DAA3308F010
:10212000A95DA19336F7B111B1931082CA010C9445
:102130009C144532510520F4423010F00C94A41048
:10214000FB011082CB010895BB27FB015527AA276D
:10215000880F991FAA1FA41710F0A41B8395505134
:10216000B9F7A05DAA3308F0A95DA193009779F7AC
:10217000B111B1931192CB010C949C144F925F92C8
:102180006F927F929F92AF92BF92CF92DF92EF9227
:10219000FF920F931F93CF93DF93CDB7DEB72997AD
:1021A0000FB6F894DEBF0FBECDBF6A01122FB02E5E
:1021B0002BE3201720F0FF24F394F00E02C0BCE3C1
:1021C000FB2E0F2D27E0AE014F5F5F4F0E94A9133A
:1021D000AC018981982F9970913031F0E1FC06C0F3
:1021E000E0FE06C090E205C09DE203C09BE201C094
:1021F00090E0EE2DE07183FF3CC0911102C083E0BE
:1022000001C084E0811718F4212F281B01C020E0B1
:10221000E1110BC0F601822F30E2882319F03193CF
:102220008150FBCFC20ED11C20E0992329F0D601AA
:102230009C93F60131966F01C6010396E2FE0AC037
:102240003EE4D6013C9341E411964C9311971296CB
:102250003C9306C03EE6F601308341E6418332837B
:10226000FC01322F40E2332309F442C04193315044
:10227000FACF82FF44C0911102C083E001C084E024
:10228000811718F4212F281B01C020E0E1110BC099
:10229000F601822F30E2882319F031938150FBCF71
:1022A000C20ED11C20E0992329F0D6019C93F6019F
:1022B00031966F01C6010396E2FE0BC039E4D601E8
:1022C0003C933EE411963C93119736E412963C936E
:1022D00007C039E6F60130833EE6318336E63283C5
:1022E000FC01322F40E2332319F041933150FBCFF0
:1022F000FC01E20FF11D10828EEF9FEFB7C0F1E0FD
:10230000911101C0F0E06F2F70E01416150624F44F
:102310009A012F5F3F4F02C021E030E0260F371FA8
:10232000BB2029F06B2D70E06F5F7F4F02C060E033
:1023300070E0260F371F612F70E0261737071CF457
:10234000121B212F01C020E03E2D387159F4D60117
:10235000322F60E2332319F06D933150FBCFC20E60
:10236000D11C20E0FF2331F0D6019C93B6016F5FB2
:102370007F4F6B01E1110BC0F601922F30E39923DF
:1023800019F031939150FBCFC20ED11C20E09F2D4C
:10239000940F3A81782F7071A72E84FF03C03133D8
:1023A00009F49150191624F4993018F098E001C0FE
:1023B00091E0E42F852F57FF02C0E0E080E06E2F10
:1023C000782FE0E0F0E0AEE29A2E3A01691A710847
:1023D0002A01461A570A0B2D10E011950195110993
:1023E0006F3F8FEF780729F4D6019C92C6010196C2
:1023F0006C014617570784F0661677066CF47F0168
:10240000E40CF51CA1E0B0E0AC0FBD1FEA0EFB1E12
:10241000D7011196BC9002C090E3B92E61507109AA
:102420003196C60101967C016017710724F0D60130
:10243000BC926C01D5CF6417750741F4363320F494
:10244000353321F4A11002C081E3B82EF601B08229
:10245000F701822F90E2882319F091938150FBCFEE
:10246000F701E20FF11D108280E090E029960FB68F
:10247000F894DEBF0FBECDBFDF91CF911F910F91BA
:10248000FF90EF90DF90CF90BF90AF909F907F90A4
:102490006F905F904F900895A0E0B0E0E2E5F2E128
:1024A0000C94DF15EC017B016115710519F0DB015E
:1024B0008D939C938E010F5F1F4F7880872D90E046
:1024C0000E94860F892B11F0E801F4CFBDE27B1248
:1024D00005C00F5F1F4F7980C1E008C0EBE27E129C
:1024E00004C08E010E5F1F4F7980C0E06801F1E0EB
:1024F000CF1AD10843E050E06AEC70E0C6010E94B8
:102500008414892BF1F4680122E0C20ED11C45E04D
:1025100050E065EC70E0C6010E948414892B21F420
:10252000680187E0C80ED11CE114F10419F0D7014D
:10253000CD92DC92C111FFC060E070E080E89FE7BF
:1025400003C143E050E062EC70E0C6010E948414D5
:10255000892B51F4E114F10409F4F2C00E5F1F4F0E
:10256000F70111830083ECC0680160E070E0CB01EB
:1025700000E010E0F601D0EDD70DDA3058F52C2F41
:102580002260622E2C2F2870C2FF05C0211128C0A6
:102590000F5F1F4F25C0222311F001501109A5E044
:1025A000B0E09B01AC010E94D0154B015C01880C8E
:1025B000991CAA1CBB1CC501B4016D0F711D811DA6
:1025C000911D6839A9E97A078A07A9E19A0740F0BD
:1025D000C66005C0DE3F51F4C3FD44C0C8606C2E28
:1025E000BFEFCB1ADB0A7080C62DC4CF2D2F2F7DF5
:1025F0002531C1F540814D3211F4C06106C04B3226
:1026000021F0319621E030E006C03296D6011196D5
:102610004C9122E030E0A0EDA40FAA3018F0E21BAC
:10262000F30B20C040E050E04038BCE05B075CF4B6
:102630009A01220F331F220F331F420F531F440FE3
:10264000551F4A0F511D3196DF0111972C91A0EDB6
:10265000A20FAA3048F3C4FF03C051954195510918
:10266000040F151FC1FF07C0E114F10421F03197D9
:10267000D701ED93FC930E94B114C370C33019F0DD
:102680006B017C0106C06B017C01F7FAF094F7F84E
:10269000F09420E030E0A901C701B6010E94AC141B
:1026A000882309F445C017FF06C01195019511094B
:1026B000C1EED0E002C0C9EFD0E05E01B8E1AB1AD4
:1026C000B1084601BE2DAF2D90E2E92EF12C0E157A
:1026D0001F0584F0FE012591359145915491B40177
:1026E0008B2F9A2F0E9412154B01B82FA92F0E196C
:1026F0001F09EDCF2497F594E794CA15DB0539F748
:102700006401EB2EFA2E8E2D880F8F2D881F8F3FA0
:1027100049F020E030E0A901C701B6010E94AC14E5
:10272000811106C082E290E0909359018093580194
:10273000C701B60109C060E070E080E89FEF04C007
:1027400060E070E080EC9FE7CDB7DEB7EEE00C9480
:10275000FB15283008F027E03327DA01990F311DE7
:1027600087FD916000966105710539F432602E5F36
:102770003D9330E32A95E1F708959F3F30F080388C
:102780007105610509F03C5F3C5F3D93913008F0B5
:102790008068911DDF93CF931F930F93FF92EF9269
:1027A000192F987F9695E92F96959695E90FFF2713
:1027B000E95AFE4F99273327EE24FF24A701E701AA
:1027C00005900894079428F4360FE71EF81E491F59
:1027D000511D660F771F881F991F0694A1F705905A
:1027E000079428F4E70EF81E491F561FC11D770FE6
:1027F000881F991F661F0694A1F70590079428F477
:10280000F80E491F561FC71FD11D880F991F661F3D
:10281000771F0694A1F70590079420F4490F561FDF
:10282000C71FD81F990F661F771F881F0694A9F727
:1028300084911095177041F0D695C7955795479597
:10284000F794E7941A95C1F7EDEFF0E068941590CE
:10285000159135916591959105907FE27395E118F9
:10286000F10A430B560BC90BD009C0F7E10CF11E5E
:10287000431F561FC91FD01D7EF4703311F48A9573
:10288000E6CFE894015030F0080F0AF40027021751
:1028900008F4202F2395022F7A3328F079E37D93D3
:1028A0002A95E9F710C07D932A9589F606949795A5
:1028B0006795379517951794E118F10A430B560B56
:1028C000C90BD00998F023957E9173957A3308F05F
:1028D00070E37C932013B8F77E9170617D9330F0A4
:1028E000839571E37D9370E32A95E1F71124EF90CE
:1028F000FF900F911F91CF91DF91992787FD9095C0
:102900000895992788270895FB01DC014150504024
:1029100088F08D9181341CF08B350CF4805E6591CC
:1029200061341CF06B350CF4605E861B611171F331
:10293000990B0895881BFCCFDC01FC01672F719176
:102940007723E1F7329704C07C916D937083629195
:10295000AE17BF07C8F308950E94EE1408F481E093
:102960000895E89409C097FB3EF490958095709582
:1029700061957F4F8F4F9F4F9923A9F0F92F96E9CB
:10298000BB279395F695879577956795B795F11140
:10299000F8CFFAF4BB0F11F460FF1BC06F5F7F4FDD
:1029A0008F4F9F4F16C0882311F096E911C07723EF
:1029B00021F09EE8872F762F05C0662371F096E8F8
:1029C000862F70E060E02AF09A95660F771F881FC7
:1029D000DAF7880F9695879597F90895990F00086B
:1029E000550FAA0BE0E8FEEF16161706E807F907E1
:1029F000C0F012161306E407F50798F0621B730B7C
:102A0000840B950B39F40A2661F0232B242B252BFC
:102A100021F408950A2609F4A140A6958FEF811D9F
:102A2000811D08950E9425150C9496150E94881505
:102A300038F00E948F1520F0952311F00C947F152B
:102A40000C94851511240C94CA150E94A71570F3D7
:102A5000959FC1F3950F50E0551F629FF001729F43
:102A6000BB27F00DB11D639FAA27F00DB11DAA1F52
:102A7000649F6627B00DA11D661F829F2227B00D9F
:102A8000A11D621F739FB00DA11D621F839FA00D2A
:102A9000611D221F749F3327A00D611D231F849F7A
:102AA000600D211D822F762F6A2F11249F575040D1
:102AB0009AF0F1F088234AF0EE0FFF1FBB1F661F4C
:102AC000771F881F91505040A9F79E3F510580F015
:102AD0000C947F150C94CA155F3FE4F3983ED4F331
:102AE000869577956795B795F795E7959F5FC1F7B9
:102AF000FE2B880F911D9695879597F9089597F964
:102B00009F6780E870E060E008959FEF80EC089593
:102B100000240A94161617061806090608950024BC
:102B20000A9412161306140605060895092E039436
:102B3000000C11F4882352F0BB0F40F4BF2B11F4AA
:102B400060FF04C06F5F7F4F8F4F9F4F089557FD09
:102B50009058440F551F59F05F3F71F04795880F0B
:102B600097FB991F61F09F3F79F0879508951216A2
:102B700013061406551FF2CF4695F1DF08C016164E
:102B800017061806991FF1CF8695710561050894FF
:102B90000895E894BB2766277727CB0197F9089516
:102BA0000E941216A59F900DB49F900DA49F800DBA
:102BB000911D112408952F923F924F925F926F9230
:102BC0007F928F929F92AF92BF92CF92DF92EF92BD
:102BD000FF920F931F93CF93DF93CDB7DEB7CA1B3E
:102BE000DB0B0FB6F894DEBF0FBECDBF09942A8869
:102BF000398848885F846E847D848C849B84AA8411
:102C0000B984C884DF80EE80FD800C811B81AA819D
:102C1000B981CE0FD11D0FB6F894DEBF0FBECDBF68
:102C2000ED010895A29FB001B39FC001A39F700D55
:102C3000811D1124911DB29F700D811D1124911DC4
:062C40000895F894FFCF97
:082C460000005A01200000000B
:00000001FF
